S0140000756C74696D2D666C6F617431362E7333370B
S21400000000100020A51B0000A11B0000A11B000083
S214000010555D0000A11B0000A11B0000A11B0000F5
S214000020A11B0000A11B0000A11B0000A11B0000DB
S214000030A11B0000A11B0000A11B0000A11B0000CB
S214000040A11B0000B9DB0300A11B0000A11B0000E0
S2140000507DD4030011DC0300C5DB0300DDDB0300F9
S214000060BDDB03004D23000039240000A11B000067
S214000070A11B0000A11B0000A11B0000A11B00008B
S214000080A11B0000A11B000055240000A11B0000BE
S214000090A11B0000A11B0000A11B0000A11B00006B
S2140000A0A11B0000A11B0000A11B0000A11B00005B
S2140000B015DC0300C1DB0300E56B000051DC030028
S2140000C0A11B0000D1C60300A11B0000A11B00005D
S2140000D0A11B0000A11B0000A11B0000A11B00002B
S2140000E0A11B0000A11B0000A11B0000A11B00001B
S2140000F0A11B0000A11B0000A11B0000A11B00000B
S214000100A11B0000A11B0000A11B000010B5054CA0
S214000110237833B9044B13B10448AFF300800123AE
S214000120237010BD6C30022000000000C0B5040033
S21400013008B5034B1BB103490348AFF3008008BD65
S2140001400000000070300220C0B50400A3F5803A1D
S214000150704700BF174B002B08BF134B9D46FFF799
S214000160F5FF00218B460F461348144A121A41F039
S2140001705DFD0E4B002B00D098470D4B002B00D09A
S21400018098470020002104000D000D48002802D0EA
S2140001900C48AFF3008041F0C1FC2000290000F0BD
S2140001A07DF841F095FC00BF00000800000000004C
S2140001B000000000001000206C300220684403207D
S2140001C00000000000000000014B1868704700BFE8
S2140001D0883002200CB407B504AB53F8042B019307
S2140001E01DF090FD03B05DF804EB02B07047000010
S2140001F008B521F0BDF8054B186028B9044B054A30
S2140002000548572141F03EFC08BD00BF883002205B
S214000210B85004003B510400C2500400014B18685B
S2140002201BF05ABE8830022010B50F4C0F4801F064
S21400023024FE01F04BF901F0BBF901F02FFA20681B
S214000240012121F0A5F828B1094B0A4A6A210A487B
S21400025041F018FC2068012121F08CFC18B1074BF6
S214000260044A6B21F3E710BD88300220485304008F
S214000270CB50040032510400C2500400FD5004006C
S21400028010B5054C206821F0F2FA206808F0B8FB9B
S214000290BDE8104001F09ABA8830022008B506F092
S2140002A0BFFCFFF7C1FF06F0C8FCFFF7E9FF05F04B
S2140002B0C7FEF8E710B5084690B00C4621F019FACC
S2140002C03F2301466A46204621F017FA10AB184431
S2140002D0002300F8403C07490B22684642F0E6FB44
S2140002E030B9054801F0CCFD044869461DF0F8FC1D
S2140002F010B010BD51510400485304005C51040076
S2140003000023F0B50138551E1E46CC5C00F8014FA0
S214000310012C0AD1CC186778032F06D1A478012CBB
S21400032003D19D42C4BF0670023301339A42ECDA11
S214000330F0BD000070B5154C154E002105464FF473
S21400034080722046316041F071FC204642F0A6FBE8
S214000350104B30601B6813F0010F044428460ED182
S21400036040F0CCFE0B460C490246204642F064FBA9
S214000370BDE8704005484FF4807108F0F9BB40F0C6
S214000380BDFE0B4602460549EFE700BFE1E5022049
S214000390E4E60220A4E5022073510400785104002C
S2140003A02DE9F84F0FF2F009D9E900892DED028BFF
S2140003B0DFF8FCA0002443F6E006A50006EB840662
S2140003C005EB0A034FF0000BC3F800B042F0B2FA98
S2140003D0652390FBF3F202FB130007EE900A9FEDF5
S2140003E0308A304FF8EEE77A2F44C7EE887AA03589
S2140003F017EE900A40F082FE2B4B002240F01EFDC6
S21400040002460B4640F01CFD42464B4640F0CEFEF0
S21400041041F066F9B5423860D2D10134282CCAD1F1
S2140004200FF27409D9E90089DFF888A00025AC002E
S21400043004F576770AEB04031C4EC3F800B042F0CE
S21400044079FA652390FBF3F202FB130007EE900A9D
S214000450F8EEE77A2644C7EE887A183417EE900A44
S21400046040F04CFE104B002240F0E8FC02460B46E3
S21400047040F0E6FC42464B4640F098FE41F030F92C
S214000480BC423060D6D10135062DD0D1BDEC028BF2
S214000490BDE8F88FAFF30080CDCCCCCCCCCCEC3F15
S2140004A00000C842886E02200000E03F80E0022084
S2140004B090300220706902202DE9F74F4C4CDFF88F
S2140004C040914C4F05468A464FF0000800F5B47B35
S2140004D00026D4ED007AA4F561532A460434F2ECE3
S2140004E0016A194691ED007A934546EE877A03F144
S2140004F0A003F4D1F1EE677A17EE900A40F0FEFD05
S21400050044F0AEFB32463B4640F09AFC02460B46B1
S2140005103046394640F074FF41F0E2F808F1010831
S214000520B8F1280F49F8040BD3D1334C334FDFF81A
S214000530C4B0CDF804A0002600254FF0000AD4ED84
S214000540F07A2F49224600231046F1EC016A90ED1E
S214000550007A0133282B46EE877A02F11802F3D18F
S214000560F1EE677A17EE900A40F0C8FD44F078FB8B
S21400057052465B4640F064FC02460B4650465946DF
S21400058040F03EFF41F0ACF8019B47F8040B07EE45
S214000590900AB3EC017A77EE677A019317EE900A29
S2140005A040F0ACFD10A3D3E900238046894640F016
S2140005B0FDFD42464B4640F0F9FD804628468946FA
S2140005C040F09CFD02460B464046494640F038FC4B
S2140005D041F086F80136062E054604F10404AED135
S2140005E003B0BDE8F08F00BF555555555555C53F6E
S2140005F0C8A602200000F03F80E0022050E0022063
S214000600486D02202DE9F04F2DED068BAA4CDFF841
S214000610C0A2AA4F85B000F5B4730290884625465E
S2140006204FF0000903930026029AD5ED007AA5F54F
S214000630615304351946F2EC016A91ED007A03998C
S2140006408A4246EE877A03F1A003F3D1F1EE677A89
S21400065017EE900A40F052FD44F002FB32463B464D
S21400066040F0EEFB02460B463046394640F0C8FEE8
S21400067041F036F809F10109B9F1280F4AF8040BE0
S214000680D2D18F4B8F4DDFED908A8C4F9FED8F9A96
S21400069001939B46AA464FF000090026DAEDF07A51
S2140006A08B49524600231046F1EC016A90ED007A21
S2140006B00133282B46EE877A02F11802F3D1F1EEC9
S2140006C0677A17EE900A40F019FD44F0C9FA3246F0
S2140006D03B4640F0B5FB02460B463046394640F0F6
S2140006E08FFE40F0FDFF7B4B03EB890308EE100AFC
S2140006F01860D8ED007A77EEC87A09F1010967EE3E
S214000700887A0AF1040A17EE900A40F0F7FC41ECEA
S2140007101A0B18EE100A40F0F1FC02460B46304663
S214000720394640F08BFB02460B4651EC1A0B40F064
S2140007303DFD40F0D5FF4BF8040BF8EC017A37EEA0
S214000740C88AB9F1060F68EE097A47EE888AA5D1FD
S214000750614EDFF87CB1B24600270199DFED5A7A88
S2140007602A460023F2EC016AB1EC017A0133062B2B
S21400077046EE877AF6D1BBEC018A68EE277A063712
S21400078017EE900A40F0BAFC804618EE100A89462A
S21400079040F0B4FC02460B460020484940F04EFBB1
S2140007A002460B464046494640F000FD40F098FFA2
S2140007B0F02F4AF8040B05F11805CED1474B4849EF
S2140007C093ED007A474BD3ED006A0020D1ED007A16
S2140007D0F6EC015A94ED006A029D67EEA67A45EEA5
S2140007E0877A0A462346A2F56152E1EC017A77EE53
S2140007F0867AA3F56153E4EC017AB5EC016AD2ED92
S214000800007A27EE066A66EEA77A46EE257A17463F
S214000810A03293ED006AC7ED007A76EE277A1F467F
S214000820C7ED007A039FBD4203F1A003E5D1013076
S2140008302828CBD12C482D490024019BD0ED007AE6
S214000840F3EC015A91ED006A019366EEA77A47EE43
S214000850257A02460B461E4EE0EC017A77EE867A43
S214000860A2F57072E1EC017AA3F570730025B6EC80
S214000870016AD2ED007A27EE066A66EEA77A46EEA1
S214000880257A1746013593ED006AC7ED007A76EEB5
S214000890277A1F46282D02F1180203F11803C7ED28
S2140008A0007AE4D10134062CC7D118EE900A05B0C0
S2140008B0BDEC068BBDE8F08FC8A602200000F03F16
S2140008C068E0022080E0022000000000ABAA2A3E7A
S2140008D0486D022050E00220E86D02200010002043
S2140008E0D068022008100020306D022040E402206C
S2140008F030B5144D05EA403207EE902AF8EEE77A56
S214000900C0F3842417EE901AC90DC1F1960302FABB
S21400091003F32B40253943EAC153111E18BF0121AA
S214000920002C18BF00214B4304F17001003C42EA42
S214000930C15218BF01240004624300F00040104377
S214000940184330BD00E07F0000F58050C0F3C7516B
S214000950154A7029C0F3160302EA104281BFA1F1BE
S2140009607000800200F4F84040EA533098BF002040
S2140009700243A1F166000A289FBF03F5FF03C1F1F9
S2140009807D0003F5E04323FA00F09ABF0130C0F380
S2140009904F0000208F2947F6FF7340EA020098BFF9
S2140009A000231843704700BF0080FFFF07B5435C75
S2140009B08DF804300844022243788DF8053001A9EA
S2140009C00DF1060041F00AF9BDF8060003B05DF827
S2140009D004EBFFF78DBF00002DE9F8430024114F0C
S2140009E0DFF844803C6006460D460F48DFF83C9032
S2140009F04FF48072214641F019F9AC4206DBBDE89F
S214000A00F84309484FF4807108F0B2B8064842F03F
S214000A1045F83860325D4946404442F00DF80134EE
S214000A20EBE700BFE4E60220E1E502207D5104008A
S214000A3070B50D4C0D4E002105464FF480722046D1
S214000A40316041F0F3F8204642F028F8084930605B
S214000A502A46204441F0F0FF20464FF48071BDE85E
S214000A60704008F085B800BFE1E50220E4E6022009
S214000A708151040007B5042201910DEB020141F0FB
S214000A80ADF803B05DF804FB2DE9F04306468DB0E3
S214000A9008460C46174620F03DFB8046204620F0D0
S214000AA032FB00218146304620F0FBFA054600283E
S214000AB062D044230222214620F001FB204620F08B
S214000AC035FB0190204620F02AFB01990246284675
S214000AD020F00CFB284620F014FBB8F1010F2CD1B7
S214000AE0284B0493284BD3ED007AB6EE007A77EEC7
S214000AF0877A04A817EE901AC3ED007AFFF7BAFFBC
S214000B00042104A8FFF768FF042204A9284620F061
S214000B10F2FD044630B903463A462946304620F0F0
S214000B204FFB0446284620F0E0FD3CB335B328468C
S214000B300DB0BDE8F04320F0D8BDB8F1020F13D1D8
S214000B40204620F0D6FD1D23014604AA204620F0AC
S214000B50D4FD0CAB1844002400F8204CB9F1000F6B
S214000B60E0D1042203A9D1E7B8F1030F02D1284649
S214000B7020F0BBFD0024D5E70324D3E70DB0BDE885
S214000B80F08300BF3132333420100020F0B5DFF898
S214000B90C4C02D4E2D4D9CED005AD6ED005A95ED55
S214000BA0006A2B4800231F469E461C46024600212C
S214000BB0D2ED006A92ED017AD2ED027AF5EEC06AC5
S214000BC0F1EE10FAB5EEC07A48BFF1EE666AF1EEC5
S214000BD010FAF5EEC07A48BFB1EE477AF1EE10FA99
S214000BE0B4EEE65A48BFF1EE677AF1EE10FAB4EECC
S214000BF0E57A44BFB0EE665A4FF0010EF1EE10FAF9
S214000C00F4EEC67AC4BFF0EE475A01270331F1EE80
S214000C1010FAC4BFB0EE676A01235A2902F10C022B
S214000C20C6D10134B4F5B47F00F5B470BED1BEF1C0
S214000C30000F01D08CED005A0FB1C6ED005A0BB173
S214000C4085ED006AF0BD00BF542C0220582C02200F
S214000C502C100020502C0220154B1649D3ED007A9C
S214000C60154B93ED007A154BD3ED006A00200B462A
S214000C700022D3ED005A85EEA76A03325A2A03F102
S214000C800C0353ED025A03ED036A85EE876A53EDB3
S214000C90015A03ED026A85EEA66A03ED016AE8D101
S214000CA00130B0F5B47F01F5B471E0D1704700BFF4
S214000CB0502C02202C100020542C0220582C0220ED
S214000CC070B5124ADAB000256C462146134600205D
S214000CD01E6841F8046B01305E684E671E289E68E9
S214000CE0C1F8EC6003F10C03F2D111465A2354F814
S214000CF0040B41F8040B013BF9D10135B5F5B47F7F
S214000D0002F5B472E0D15AB070BD00BF2C100020BE
S214000D10F8B5104E104F002437253368A34200DC88
S214000D20F8BD41F007FE90FBF5F303FB150047F80E
S214000D302400002308491A469C4203DC02B1013C09
S214000D400134EAE751F804CB604508BF01320133AD
S214000D50F2E700BF281000207CE402202DE9F84FBF
S214000D60584BDFF87091DFF870A1574D2DED048BCE
S214000D709FED568A002783ED008AF0EE488ADAF85F
S214000D800030BB420CDCC8EE887ABDEC048B4D4BC1
S214000D9017EE900AC3ED007ABDE8F84FFFF7CABA1F
S214000DA059F8041B4A4EDFF834814FF4B4744FF000
S214000DB0180B4C430BFB01FB05EB0B013019FFF73F
S214000DC021FCD8ED007A07EE100A04F5A840F4EEF0
S214000DD0C77A0BF5B4616030B7EE009AF1EE10FA00
S214000DE029443044C8BF78EE898AFFF70BFCD8ED5B
S214000DF0007A07EE100A04F52840F4EEC77A0BF5E1
S214000E003461C030F1EE10FA29443044C8BF78EEA1
S214000E10898AFFF7F7FBD8ED007A07EE100A04F58B
S214000E207D40F4EEC77A0BF587512030F1EE10FACC
S214000E3029443044C8BF78EE898AFFF7E3FBD8ED33
S214000E40007A07EE100A04F5A830F4EEC77A0BF520
S214000E50B45100F5C070F1EE10FA29443044C8BF12
S214000E6078EE898AFFF7CEFBD8ED007A07EE100AF7
S214000E7038EE098A04F5D230F4EEC77A0BF5E15164
S214000E8000F5F070F1EE10FA38EE098A2944304485
S214000E90C8BF78EE898AFFF7B5FB38EE098AD8ED29
S214000EA0007A38EE098A07EE100A38EE098AF4EE60
S214000EB0C77AF1EE10FAC8BF78EE898A38EE098A4A
S214000EC001375CE78C300220900A02200000000008
S214000ED02C1000207CE4022028100020602C022029
S214000EE02DE9F84F2B4F2C4EDFF8C880DFF8C8B03E
S214000EF005463868FFF79CFD0024B1463B680D2B7D
S214000F000BDCC3EB03236100284603EB040AFFF760
S214000F104DFD224B03EB8A0318603B680E2B07D16E
S214000F20F92C0FDC61002846FFF740FDC8F80000EA
S214000F303B680F2B06D1FE2C0DD061002846FFF72C
S214000F4035FD30600134FF2C06F1040608F1040874
S214000F50D4D1BDE8F88F124AD9F8E033D9EDFA7A41
S214000F601360D9F8E433CBF80030FDEEE77A0D4B8A
S214000F70D9F8F013C3ED007AD9EDFB7A0A4BFDEEF3
S214000F80E77AC3ED007A094B1960094BD9F8F413D8
S214000F901960D7E778E4022080E00220886E0220FD
S214000FA0081000200C10002028100020602C0220C2
S214000FB05C2C022050A60220001000202DE9F04FE5
S214000FC08146ADF2BC4D08460D46924620F0A2F88A
S214000FD00646284620F097F80021484620F061F89B
S214000FE0584F0446002800F0AA80442302222946CF
S214000FF020F065F8284620F099F80190284620F061
S2140010008EF801990246204620F070F8204620F01F
S21400101078F8012E77D14C4B1D6800200E2D3860D5
S2140010202DDCC5EB052505F1FF0348490193A846CD
S2140010308346FF2340F63762019E464503DCB8B37D
S214001040C7F800B034E098FBF3F6C6EB0626A8EB2C
S214001050060606EB050C94450EDC01EB88000BF14A
S214001060010B0068FFF770FC02AB384923F8160046
S21400107040F637620120FF2308F10108DCE70F2D58
S21400108016D1334BDFF8D0B01E68324BD3F8008051
S2140010900546F52D2CD8DBF80000FFF755FC02AB13
S2140010A023F815000135FF2D0BF1040BF1D13D603F
S2140010B03A68520092B202A9204620F01CFB054670
S2140010C030B9034652462146484620F079F8054690
S2140010D03B6813B9204620F008FB00233B601DB197
S2140010E014B1204620F001FB0DF2BC4DBDE8F08F98
S2140010F03046FFF729FCADF8F4014046FFF724FC24
S214001100ADF8F601CEE7022E15D1284620F0F1FA0A
S21400111002AA01464FF49663284620F0EEFA02AB88
S21400112000251D54024619461846FFF7E9F80846FA
S214001130FFF7D6FECCE7032EE7D00025C8E7032549
S214001140C6E700BF9CE5022078E40220886E0220F5
S2140011508C3002202010002080E002202DE9F04193
S214001160DFF84C814E4D4F4C4F4E2DED048B9FEDCE
S2140011704F8A372788ED008AF0EE488AB7EE009A45
S21400118021462846FFF798F9D6ED007A07EE100AB2
S21400119005F5A840F4EEC77AF1EE10FA04F5B4614E
S2140011A000F16000C8BF78EE898AFFF785F9D6EDB2
S2140011B0007A07EE100A05F52840F4EEC77AF1EE3D
S2140011C010FA04F5346100F1C000C8BF78EE898AD1
S2140011D0FFF772F9D6ED007A07EE100A05F57D40A6
S2140011E0F4EEC77AF1EE10FA04F5875100F120000C
S2140011F0C8BF78EE898AFFF75FF9D6ED007A07EE6A
S214001200100A05F5A830F4EEC77AF1EE10FA04F5E8
S214001210B45100F5C070C8BF78EE898AFFF74CF964
S214001220D6ED007A07EE100A38EE098AF4EEC77A91
S21400123005F5D230F1EE10FA04F5E15100F5F07044
S214001240C8BF78EE898A38EE098AFFF735F938EE96
S214001250098AD6ED007A07EE100A38EE098AF4EE0F
S214001260C77AF1EE10FA38EE098A07F10107C8BF0F
S21400127078EE898A3C2F38EE098A05F5B47504F1B4
S21400128018047FF47DAFC8EE887ABDEC048BC8EDF9
S214001290007A17EE900ABDE8F041FFF74BB800BFA2
S2140012A0845D0020B80F02205C2C022000000000A5
S2140012B0201000202DE9FF47064608460C46174634
S2140012C01FF028FF814620461FF01DFF00218046A4
S2140012D030461FF0E6FE0546002800F095804423C1
S2140012E0022221461FF0EBFE20461FF01FFF019052
S2140012F020461FF014FF0199024628461FF0F6FE0E
S21400130028461FF0FEFEB9F1010F26D1424841F0F3
S214001310C5FB414982B2284620F0EDF9044650B993
S21400132003463A46294630461FF04AFF3B4A1368B2
S214001330013304461360394E336813B9284620F04B
S214001340D4F900233360002C62D0002D60D02846EC
S21400135004B0BDE8F04720F0C8B9B9F1020F55D186
S214001360204620F0C6F90323014602AA204620F0B4
S214001370C4F904AB1844002300F8083C9DF80800A4
S214001380DFF8A8901E38C9F80000FFF751FBD9F81F
S2140013900030152B14D1FFF7BBFC214A214B40F639
S2140013A0396152F8040B43F8040B0139F9D1DFF820
S2140013B080A00C46DAF80030A34221DAFFF7CEFE12
S2140013C0D9F80030162B01D1FFF7C8FEB8F1000F90
S2140013D01CD1124A136801331360134B04221B6896
S2140013E0039303A9284620F086F904460028A2D1D4
S2140013F043463A46294630461FF0E2FE04469AE740
S214001400FFF7ACFC0134D5E7032494E7002492E709
S21400141004B0BDE8F08700BF6C0A0220A0E50220F9
S214001420886E02206CA702202010002078E402209C
S2140014300C100020F0B54FF4807287B000212048D1
S2140014401F4E204F40F0F2FB1F491D4841F0F4FAB2
S2140014501B4841F023FBFEF7B7FE1FF0AAFF044629
S2140014603CB917484FF4807107B0BDE8F04007F06C
S2140014707FBB134841F012FBE1896388228849BA92
S21400148089B20591A18949BA89B20491618949BA9C
S21400149089B20391218949BA89B20291E5886DBA69
S2140014A0ADB20195A5886DBA5BBA52BAADB20095D9
S2140014B09BB292B23946304441F0BEFA6469CFE737
S2140014C0E1E50220A55104008651040010B52A4823
S2140014D01CF006FCFEF778FE42F2107120F02FF8A2
S2140014E0044600283DD1FEF76FFE4FF0010120F0C4
S2140014F03AFA0446002834D1FFF79CFFFEF764FE54
S21400150041F2336104461FF049FE1C4B1C491B6820
S2140015100B6020461B4B8C604B601FF048FE1A4B3E
S2140015201A491B680B602046194B8C604B601FF0F5
S2140015303EFE184B18491B680B602046174B8C6004
S2140015404B601FF034FEFEF72BFFFFF71FFBFFF785
S21400155083FBFFF7B5FBFFF7DBFBBDE8104007F0AA
S21400156061BA20461FF002FF21460246BDE8104041
S2140015700B481CF0B5BB00BFBF5104000410002090
S2140015807CE50220BD0F00008C0A02206CE50220DC
S214001590B5120000241000208CE50220890A000005
S2140015A0D9510400014B1878704700BFA8E5022007
S2140015B070B5A0B06822002106A840F037FB0122D3
S2140015C00023CDE906232D4B1893BDF87C302C4A1A
S2140015D043F4C0731068516843F00103ADF87C30E3
S2140015E06B4603C3082269460DF1490040F0F6FA3F
S2140015F09DF87C3043F010038DF87C30214B02AA16
S21400160003F11006154618685968144603C40833D3
S214001610B3422246F7D1102229460AA840F0DEFA45
S2140016209DF87C30184843F004038DF87C3041F078
S21400163035FA1028024606D9144B154A154840F2CA
S214001640216140F01FFA10490EA840F0C7FA9DF835
S2140016507C3043F008038DF87C30FEF7B5FD06A914
S2140016601FF02BFE044630B11FF080FE21460246D6
S21400167009481CF035FB20B070BD00BF34120F00C7
S2140016805A520400EF52040010100020FE510400CD
S214001690FF520400215204003152040010B586B0F7
S2140016A01222002101A840F0C1FAEA23ADF8143056
S2140016B0FEF78AFD134A1449002320F0A6FA0446D2
S2140016C040B11FF053FE2146024610481CF008FBAE
S2140016D006B010BDFEF778FD0B49012301AA20F0E5
S2140016E0AEFA04460028F3D01FF040FE214602461C
S2140016F007481CF0F5FAFEF767FD034920F09AFA52
S214001700E6E700BFB5020000ACE502206352040025
S214001710905204002DE9F041054600F0F9FA012840
S214001720044640D1214B9D4213D1214A1368013310
S214001730002B136003F00102B8BF5242012A0CBF0F
S2140017401C4A1D4A9B001344BDE8F0411868FEF78A
S214001750F1BD1A4B9D4226D1154D194F2B6801330A
S2140017602B60184B1870184B37221A60FFF7F6FCE0
S21400177065264FF00008FFF7CBFAFFF7EFFAFFF702
S214001780EDFAFFF7EBFAFFF7E9FA3868C5F80080DC
S214001790FEF7D0FD2C60FFF7E1FC013EEBD1BDE883
S2140017A0F04107F03FB9BDE8F08100BF18530400D0
S2140017B0A4E502206CA70220886E022030530400A5
S2140017C08C300220A9E502202810002030B5224BDC
S2140017D01A788DB072BB214B1A78002A3AD00025B1
S2140017E01D70FEF7F1FC294620F001FA044688B386
S2140017F029462C2201A840F019FA194805A91FF01D
S21400180014FE98B97B231748ADF8263041F046F908
S214001810144982B220461FF06EFF38B9FEF7D4FC9A
S214001820114901AB224620F014FA98B120461FF069
S2140018305CFF0FE000221A700C4B197881F0010251
S21400184001F007041A70FEF7BFFC214620F08BF863
S2140018500028C0D00DB030BDE0E50220A9E502208A
S214001860BD520400C5520400ACE50220A8E50220E3
S2140018707047000008B50421112002F0EDFC09486D
S214001880012102F0CFF90848022102F0E5FC0748E2
S214001890022102F0E1FC0648022102F0DDFC0020F5
S2140018A008BD00BF30253E0002001E0003002000D9
S2140018B00500240008B5244B01225A64234BD3F8B4
S2140018C0FC20234B120E12D14AF6E851C3F89011B1
S2140018D0D3F8981141F00401C3F89811C3F8902189
S2140018E0D3F8642142F40052C3F8642101E0012ACF
S2140018F0F6D0184A136A23F4441343F48813136289
S214001900A2F58042136843F48073136002F54052D8
S214001910D2F8A43143F4F843C2F8A43104F0D6F860
S21400192000F0AEF804F064F804F086F804F0BAF8B4
S214001930FFF7A0FF04F072F800F094F800F098FDAE
S214001940BDE8084004F0A4BA00000E400081E00F95
S21400195000300E4000400E4008B500F047FD00F095
S21400196053F800F05FF8BDE8084000F06BB808B523
S21400197004F06AFE17F068F8BDE8084004F0F6B810
S21400198008B504F011F804F01BF8BDE8084007F0AD
S2140019902BB800F004B8704770477047704708B51A
S2140019A0FEF726FC06F0BCFFBDE80840FEF736BC96
S2140019B0012070470120704710B506F0C7FF0446A7
S2140019C0FFF7F6FF002814BF2046002010BD38B5EC
S2140019D004F00EFC044602F07FF8042810D002281B
S2140019E04FF0000508BF0124FFF7E4FF042809D0E4
S2140019F0022808BF0124002D18BF0024204638BD49
S214001A000125F1E70024F9E708B5044800F07AF963
S214001A10BDE80840024800F075B900BF185304003E
S214001A2030530400014800F025BA00BF48530400B4
S214001A3018B1034B1860002070472520704700BF80
S214001A4040E7022010B5054C0549206801F080FAF1
S214001A502068BDE81040FFF7EBBF00BFA42C0220B3
S214001A60802C022008B50548012102F0DBF8FFF7BC
S214001A70FFFEBDE8084000F009B800BF00350A00C8
S214001A800148012102F0CEB800350A002DE9F043E6
S214001A903B4D3C4FDFF80091DFF800810FCD87B05B
S214001AA06C460FC495E80300374D84E803003748BA
S214001AB0012102F0B7F838460121012402F0B2F8FD
S214001AC0334B0293694628468DF80E4003F032FEEB
S214001AD02346042200210A2003F058FA2246002357
S214001AE002210A2003F052FA234604220721052089
S214001AF003F04CFA0422214623460A2003F046FA55
S214001B00244BAB670B236B6702264FF4487005F037
S214001B109FF8C9F8EC61142005F09AF8C8F8EC6153
S214001B20232005F095F8C9F8EC61B921284603F0A2
S214001B3042FE00231A461946C8F8EC610A2003F054
S214001B4025FA00231A4631460A2003F01FFA2346D8
S214001B5000220721052003F019FA23460022214619
S214001B600A2003F013FA284603F07AFD0021A9673D
S214001B703846696702F056F807B0BDE8F08300BF44
S214001B8060530400006204000008014000350A00AB
S214001B9000127A001E1D001200A0004400A000469D
S214001BA0FEE7000008B500F069F8064B0649074A4C
S214001BB08B4201D3FEF7CEFA52F8040B43F8040B1F
S214001BC0F6E700BF001000206C300220C8B5040005
S214001BD00048704700F04902104AD2F8943003F0EB
S214001BE00703023B032B13D8DFE803F00C14020EA6
S214001BF00B4B1B68D2F80001C0F304200130B3FB86
S214001C00F0F07047074BF4E7074B1B685B08F1E7FB
S214001C10054BEEE74FF40043ECE700BF00400E40F4
S214001C20B42D0220AC2D0220B02D022008B5FFF7FF
S214001C30D3FF054BD3F80831C3F308230133B0FBB9
S214001C40F3F0024B186008BD00400E40A82D02209D
S214001C50014B1868704700BFAC2D0220054B18607A
S214001C60054BD3F8943003F00703022B01D1FFF79E
S214001C70DDBF7047AC2D022000400E40044B054AE5
S214001C809A60D3F8882042F47002C3F88820704720
S214001C9000ED00E0000000004FF4004070474FF4F5
S214001CA07A707047014B1868704700BFB42D022049
S214001CB000230360704703680B60016070470346AB
S214001CC0006818B102681A60002303607047036852
S214001CD003B970478B4202D10B6803607047184601
S214001CE0F5E7000005490A681318054883428CBFCB
S214001CF04FF0FF320B601046704700BFB82D022031
S214001D000000042043680BB1006818472220704783
S214001D1043690BB100681847FF20704730235843CB
S214001D20034B034401EBC30189000868704700BFFA
S214001D301CA01002114B70B51D78114B00221E46D8
S214001D40D1B28D4200D870BD53F8041B0C6861797F
S214001D50814210D1217802290DD001462079FFF763
S214001D60DDFFB0FA80F04009207056F82200BDE88A
S214001D707040FFF7CFBC0132E2E700BF1753040004
S214001D80742C022013B504460121124801F04AFFC4
S214001D90002361792079012203F0F8F8617920792F
S214001DA0FFF7BCFFA379B0FA80F04009022B207041
S214001DB00DD100F01BFB0849607900F02FFB62791B
S214001DC020790123CDE90033114603F099F800206D
S214001DD002B010BD00350A00351D000000787047BF
S214001DE008B50378022B024616D041790079FFF732
S214001DF095FF91790129034615D1003B508818BFFD
S214001E00012343EA400363F03F039BB24FF6E070C2
S214001E10834202D11170538008BD4FF6DF718B42AA
S214001E20F9D10021F6E70029F6D1B0FA80F35B0974
S214001E301370F1E70278022A03D100224280FFF7EE
S214001E40A1BF704713B50378022B044610D08379E0
S214001E50022B0BD14079002100F0E0FA627920795C
S214001E600023CDE90033114603F04AF8022323701D
S214001E7002B010BDD0E900031847C36800681847D1
S214001E80036900681847000010B501210446094898
S214001E9001F0C8FE0848012101F0C4FEA3782078AE
S214001EA06178B3FA83F35B09042203F06FF800202D
S214001EB010BD00BF4041050000350A004378017898
S214001EC001229A4030235943054B0B44817819B9B7
S214001ED003F180631A60704703F1C063FAE700BF3E
S214001EE00CA000404378017801229A4030235943E1
S214001EF0054B0B44817819B903F1C0631A6070472B
S214001F0003F18063FAE700BF0CA000404178037835
S214001F1001228A4030214B4303F1804303F52043DE
S214001F209A617047037830214B4307491944437838
S214001F3003EBC10302469B0018689378C0B213B93E
S214001F40B0FA80F0400970470CA010022DE9F04F5F
S214001F509A46554B85B01B78DDF83C909DF844B00A
S214001F60DDF8508006460F461546002B00F08B80A5
S214001F70072A00F28A800E9B002B00F08680B9F1BB
S214001F80000F00F08280129BB3F5006F7DDC012805
S214001F9002D1109B002B78D0444B03EB05131B7B20
S214001FA0002B74D0424C1022002168463FF03EFEC3
S214001FB004EB45141022002F57D1394620463FF037
S214001FC035FE43F210036380BBF1000F03D1E378C4
S214001FD043F00303E370364A0E9BCDF800A002EBF5
S214001FE0451CCCE90193129B013BC3F30A009DF804
S214001FF04C30690103F003039B0643EA001E535866
S2140020002C4818404EEA0003012E535041D11323AA
S214002010CCF80C309CE80F000CF1100E8EE80F0088
S214002020DCF81C20109BCCF814306FF0030161F331
S2140020309F02012FCCF81C2003D1CCF81890CCF8C6
S21400204004301A4A290102EB051342F801800027E2
S214002050159A5A6028469F605E732246694603F0CA
S21400206009F8384605B0BDE8F08F002120463FF05D
S214002070DDFD4FF444736380BBF1000FABD1E37812
S21400208043F03003A6E70C48ECE70C48EAE70C48B8
S214002090E8E7B8F1000FD4D19CF8023068F30413D7
S2140020A08CF80230CDE700BFC4E8022044E70220E7
S2140020B0C4E702200F80FFF3028000F0018000F0EA
S2140020C0078000F038B5124B1B780546DBB1E0B14F
S2140020D002F021FA0F4A00231146147B54B92B60F4
S2140020E01A0101EB031301258C501D7302F019FA37
S2140020F0204638BD0133082B02F11002EDD102F064
S21400210010FA0548F5E70548F3E70548F1E700BF8C
S214002110C4E8022044E70220048000F0028000F0B9
S214002120018000F013B5164B1868019000238DF857
S214002130043002F0F0F9134B1C7824B102F0F1F9E8
S214002140114802B010BD01221A7002F0EAF90F4BD6
S2140021501C731C7783F82C4083F83C4083F84C4073
S21400216083F85C4083F86C4083F87C4004230DEBD6
S21400217003008DF8073002F053FF2046E1E700BF6A
S21400218078530400C4E80220038000F044E70220ED
S21400219010B588B00E9C07940D9C06949DF83040B0
S2140021A005940B9C04949DF8284003940024CDE9E4
S2140021B0013400920B46024621462046FFF7C6FE33
S2140021C008B010BD10B588B00E9C07940D9C069400
S2140021D09DF8304005940B9C04949DF82840039489
S2140021E00024CDE9013400920B4602460121204628
S2140021F0FFF7ACFE08B010BD0A4A127808B55AB10F
S21400220007280BD8084A02EB00131B7B43B10021BA
S21400221002F0FCFE002008BD0448FCE70448FAE78C
S2140022200448F8E7C4E8022044E70220028000F0F1
S214002230018000F0078000F00A4A127808B55AB10B
S21400224007280BD8084A02EB00131B7B43B1012179
S21400225002F0DCFE002008BD0448FCE70448FAE76C
S2140022600448F8E7C4E8022044E70220028000F0B1
S214002270018000F0078000F00A4A127808B552B1D3
S21400228007280AD8084A02EB00131B7B3BB102F072
S21400229043FF002008BD0548FCE70548FAE7054867
S2140022A0F8E700BFC4E8022044E70220028000F0FE
S2140022B0018000F0078000F00D4B1B7893B10728D3
S2140022C012D889B10B4B03EB00131B7B73B10A4B7F
S2140022D01A6A012303FA00F010401ABF00200B70A0
S2140022E008707047054870470548704705487047AE
S2140022F0C4E8022044E7022000200E40028000F0DE
S214002300018000F0078000F00B4A127810B50C46EA
S21400231062B107280CD859B1084A02EB00131B7BA0
S21400232043B102F00FFF2060002010BD0448FCE718
S2140023300448FAE70448F8E7C4E8022044E7022025
S214002340028000F0018000F0078000F02DE9F843DD
S214002350DFF86480D8F86070D8F86C301F4000D57D
S214002360FEE7144CDFF8549001260025374217D0BC
S2140023702368C8F868609BB1A16862680131A160F3
S21400238028469847637B012B0AD148B909EB4513C9
S2140023901A7B60F341021A731A7F60F341021A77C0
S2140023A00135082D4FEA460604F11004DED1BDE8DB
S2140023B0F88300BF44E7022000200E40C4E7022056
S2140023C070B5094E0446012504B970BD94FAA4F010
S2140023D0B0FA80F005FA00F324EA030456F8203039
S2140023E0002BF1D09847EFE7C8E8022008B5122086
S2140023F002F09AF828B1084B4FF48022C3F88021E7
S2140024001A600A2002F090F828B1034B4FF480625D
S214002410C3F880211A6008BD00E100E038B5044624
S2140024200D4602F078F8034B43F82450BDE83840D8
S21400243002F077B8C8E80220054BD3F82804D3F892
S2140024401C24104000F05530C3F82404FFF7B8BF32
S21400245000A00040054BD3F82804D3F81C241040F5
S21400246000F0AA30C3F82404FFF7AABF00A000407B
S214002470024B1968024B186836F0E2B9C02D0220EC
S214002480BC2D02207047000037B5920004460D466A
S214002490019202F08FFF431C0BD060B9019A2946C7
S2140024A020463FF08BFB0028044808BF002003B0FE
S2140024B030BD0348FBE70348F9E700BF10E000F033
S2140024C021E000F024E000F013B5044601A803F074
S2140024D01BF89DF80630238040F201136380074BFB
S2140024E0D3F8E4301B0E0A33012203F01F0302FA6E
S2140024F003F30020636002B010BD00BF0081E00F50
S21400250002F084BE08B502F071FE002008BD10B5CA
S214002510044644EA010313F00303084609D1934234
S21400252001D1002010BD54F8231040F823100133C9
S214002530F5E7920021463FF051FBF2E710B504465E
S21400254002F0EAFE431C17D0C0B90D4BD3F8E430B6
S2140025501B0E0A3303F01F020123934023F00303EC
S21400256020462344984201D1002010BD50F8042B89
S2140025700132F7D00348F8E70348F6E70348F4E7E4
S2140025800081E00F0EE000F021E000F024E000F013
S21400259008B501F0B1FF014B186008BDD8EF022066
S2140025A0014B186801F0ACBFD8EF02200A4601398B
S2140025B0014403F055BB000038B141B1013AB2F511
S2140025C0006F044838BF0020704703487047014832
S2140025D0704700BF037000F0027000F038B5044684
S2140025E00D4601F098FFA3889BB223B92B6001F03B
S2140025F098FF064838BD638814229BB202FB03444A
S21400260008342C6001F08DFF0020F3E70B7000F01B
S214002610F7B504460191164601F07DFFA388E288CF
S21400262001999BB29A42054606D80023336001F012
S21400263078FF124803B0F0BD2088142780B207FB4D
S21400264000403A4608303FF0C9FA2388E2889BB239
S21400265007FB03430833336023889BB20133B3FB85
S214002660F2F102FB11339BB22380A38801339BB2A5
S2140026702846A38001F055FF0020DBE70A7000F033
S21400268010B50346006893F83230012B0CD102F0E7
S2140026908FFD044630B104F0F1F824235843B0FB14
S2140026A0F4F40134204610BD02F0AEFFF1E700005E
S2140026B090F83130022B0BD1437E30225343054A2B
S2140026C01A44437F03EBC2039B001868C0B27047EE
S2140026D0002070471CA0100213B51D4A002352F8B4
S2140026E0044B617F81420ED00133042BF7D102B038
S2140026F010BD0028FBD19DF80730002BF7D060688E
S214002700FFF77AFDF3E794F83130022BEFD120463D
S214002710FFF7CEFF637D2075022BE8D194F82E30AC
S21400272003F0FF02002BE2D160688DF807200DF160
S2140027300701FFF7C1FD237D1BB194F82F30002B56
S214002740D7D00023606884F82F30FFF775FDCEE7FA
S2140027508CF0022090F8323053B903680422DA6015
S2140027601A699007FCD55A6F42F002025A67704702
S214002770012B0CD103685A6C9107FCD404225A60D2
S2140027809A689207FCD55A6D42F002025A65704765
S21400279090F8323053B903680122DA601A69D0071C
S2140027A0FCD55A6F42F001025A677047012B0CD1D4
S2140027B003685A6C9107FCD401225A609A68D207C3
S2140027C0FCD55A6D42F001025A65704790F83230D7
S2140027D03BB903685A6F22F001025A670222DA6098
S2140027E07047012B09D103685A6C9207FCD45A6DC6
S2140027F022F001025A6502225A6070471049114AB7
S2140028000B7830B52BB9C2E90033C2E90233012395
S2140028100B700C4C0023214651F8045B854208D00F
S2140028200133042BF8D1002154F8043B1BB942F8BD
S2140028302100002003E001310429F5D1024830BD13
S2140028409CF002208CF00220027000F010B50446C6
S214002850FFF768FC0021201DFFF734FC014620B975
S21400286004F10800FFF72EFC00B1014810BD00BFC0
S2140028700E7000F070B5054601F04DFE6C6B013C25
S21400288006466C6374B901F037FE21460546012002
S21400289003F030FB0120064A214603F0CBFC284615
S2140028A001F02EFE3046BDE8704001F03ABE00BF93
S2140028B0A053040013B591F832200B68012A0C4689
S2140028C00BD19B6813F0080F20460AD0FFF7D2FF03
S2140028D0022384F8383002B010BD1B6913F0200FB5
S2140028E0F2E7FFF7CDFE0023CDE900330146034AA9
S2140028F0234604F13C0003F03FFFECE7B528000058
S21400290070B5044601F007FE636B054673B901F027
S214002910F3FD01210646084603F0ECFA01210846BD
S214002920064A03F087FC304601F0EAFD636B01338C
S21400293063632846BDE8704001F0F3BDA053040071
S2140029407FB5012380F82C3090F8323093B90C4ACA
S214002950036803920022049002924A6801920122C0
S21400296000920A68016980681C33FFF72BFC07B0E9
S2140029705DF804FB012BEAD0002380F82C30F6E744
S214002980753900002DE9F041012380F82D3090F8CC
S214002990323088B004460E466BBB0568343501F00D
S2140029A0BAFD04F13C0807460DF11F01404603F04E
S2140029B0C7FE40B99DF81F302BB1404603F07EFE9F
S2140029C02046FFF757FF3846012701F0AAFD2046AC
S2140029D084F83870FFF794FF0E4B0393002302939E
S2140029E07368E16860680494CDE900732A4633682A
S2140029F0FFF7CEFB0BE0012B06D105682B6843F4EE
S214002A00005345F8283BCAE7002380F82D3008B06D
S214002A10BDE8F081612A000038B504460D4601F095
S214002A207AFDA3889BB223B92B60BDE8384001F03D
S214002A3078BD638814229BB202FB034308332B60E5
S214002A406388E2889BB20133B3FBF2F102FB1133D9
S214002A509BB26380A388013B9BB2A380E5E700009E
S214002A60F0B585B0906A03A91446FFF7B7FD064691
S214002A702046FFF705FE002501462346CDE9005512
S214002A801B4A04F13C0003F077FE1A4B9E421FD00F
S214002A90039B1D619D6001F03EFD039AD7680646C4
S214002AA027B1D2E9002329462046B847A06A03A9E1
S214002AB0FFF7B2FFA06A83889BB263B103A9FFF752
S214002AC08DFD03992046FFF75DFF304601F029FD96
S214002AD0012005B0F0BD84F82D3094F83230012B7B
S214002AE001BF2268136823F400531360EDE700BFAC
S214002AF0B52800000B7000F01FB504460B46C07DDD
S214002B00E17E002B33D00123042202F03FFA01239A
S214002B10217F207E022202F039FA94F83130022B0F
S214002B2016D1617F607E0023012202F02FFA002377
S214002B300422A17FA07E02F029FA0123627F01937E
S214002B40607E0093114602F0DBF9002004B010BD51
S214002B50032BFAD100230122617F607E02F016FA71
S214002B6000230422A17FA07E02F010FAEDE71A46A9
S214002B70039302F00BFA039B217F207E1A4602F095
S214002B8005FA94F83120039B022A0FD11A46617F7A
S214002B90607E02F0FBF9039BA17FA07E1A4602F03E
S214002BA0F5F9039B0193627F0123C9E7032ACCD181
S214002BB01A46617F607E039302F0E8F9039B1A468B
S214002BC0D0E790F8323013B9036818697047012BC4
S214002BD01CD103689B6803F00200DA0748BF40F088
S214002BE00100590748BF40F008001A0748BF40F0E8
S214002BF02000D90648BF40F040009A0648BF40F083
S214002C0080005B0603D540F40050704700207047F4
S214002C102DE9F3410D46044600287FD001F07BFCE9
S214002C20012D064641D1A36A9B889BB2002B43D058
S214002C306068FFF721FB0023A06A84F82D308388A4
S214002C409BB273B101A9FFF7C9FC01996068394FBF
S214002C500831FFF759FB019B1F61A06A83889BB26E
S214002C6083BB2046FFF7ADFF8304FAD5023D012D56
S214002C7010D8A068FFF700FB0023606A84F82C30A9
S214002C8083889BB26BBB94F83130032B02D020466E
S214002C90FFF79CFD636B002B02DD2046FFF7EAFD85
S214002CA0304601F03EFC002009E0022D38D1636A70
S214002CB09B889BB2002BDCD101F033FC1E4802B08F
S214002CC0BDE8F08101A9FFF7A7FE019BD3F80C80B1
S214002CD0B8F1000FC1D09B68002239462046C04795
S214002CE0BBE76946FFF77AFC0099A068114D0831EA
S214002CF0FFF70AFB009B1D61606A83889BB2002B6E
S214002D00C1D06946FFF788FE009BDF68002FF3D02E
S214002D109B68002229462046B847EDE70748CEE7DD
S214002D20032DA3D1A36A9B889BB2002B80D1636A34
S214002D307AE700BF097000F0087000F0027000F03B
S214002D402DE9F3410546406A84889846A4B20023DC
S214002D50CDE900330E4617463CB16946FFF73EFC08
S214002D6001A90446A868FFF7CFFA009B73B16CB9B7
S214002D705A6801991B68521A3A60C8F80010336006
S214002D802846FFF71EFF02B0BDE8F0810023C8F812
S214002D9000303B60F3E7836A9888C0B270472DE93D
S214002DA0F04104469046FFF707FC0F46054600280C
S214002DB05CD1092001F0C6FB0646A26A93889BB246
S214002DC013B194F82E3033B394F8323043BB2368F3
S214002DD01E6906F002061EB92046FFF7BBFC002659
S214002DE0012384F8303094F832301BBBB844474592
S214002DF020681AD103699A06FCD5002E36D194F8BD
S214002E00323033BB23685A6F22F002025A67082218
S214002E10DA6035462AE0002ED0D0FFF797FACCE7E6
S214002E20012BD9D123689E68D3E717F8011B02F05F
S214002E30CCFCDCE7012BE0D1B844B845206803D1D0
S214002E4083681B07FCD5D8E717F8011B02F0C4F906
S214002E50F3E7012BDDD123685D6C15F00205FBD18D
S214002E605A6D22F002025A6508225A602846BDE8CA
S214002E70F081000010B5044680B190F82E302BB9D2
S214002E80FFF716FC10B96068FFF7B6F994F82E3015
S214002E900133DBB284F82E30002010BD0048FCE77A
S214002EA0027000F010B50446A0B190F82E309BB129
S214002EB090F82E30012B05D1FFF7FAFB10B96068A9
S214002EC0FFF7BAF994F82E30013BDBB284F82E30C7
S214002ED0002010BD0148FCE70148FAE7027000F048
S214002EE0057000F037B590F83150022D044618D121
S214002EF0A37FA17E407D01229A4030235943134B85
S214002F000B4410B903F1806303E0012805D103F1F7
S214002F10C0631A60002003B030BD217D0029F6D1C1
S214002F20F0E7012DF6D1037D73B911238DF8073034
S214002F30FFF7A0FF2A460DF107012046FFF72FFFF7
S214002F402046FFF7AFFFE5E71323EFE70CA00040AE
S214002F50F0B5094F04460D460FCF89B001AE0FC637
S214002F6097E8070086E80700002C00F0D0843DB9FB
S214002F70024E304609B0F0BDA8530400037000F0BE
S214002F805822002120463EF051FE0023636320466F
S214002F90FFF734FC06460028EBD12B7C84F8313052
S214002FA001222B6884F83820B94A2360934284F8BB
S214002FB0320040F08E81B74B2362B74BE3604FF48C
S214002FC040232361D5E906230026626216805680D8
S214002FD0968084F82C60A3621E805E809E806B685C
S214002FE003936B8984F82D6084F82F60ADF8143055
S214002FF0AB89ADF81230AB7BA8488DF810300121B4
S214003000EB7B8DF8163005278DF8117000F00AFE60
S214003010A348012100F006FE206A012100F002FE0E
S21400302028688DF8046001A902F04CFBD5F800C0B2
S2140030306B7ADCF878002A7A20F4F85020F01F002B
S214003040184340EA02200321CCF878002068CCF828
S2140030507410DFF83CC2604540F05A81BA4240F234
S2140030607281901F042840F27081A2F10B00B842D2
S21400307040F26D81A2F11100062808D9A2F11801CC
S214003080062940F266811F2A14BFFF213946042B09
S214003090E17540F26081591F042940F25E81A3F178
S2140030A00A01052940F25B81A3F11001062940F2CE
S2140030B05881A3F11701072940F25581B3F11F018A
S2140030C018BF4FF0FF31C9B22176002A58D0012A26
S2140030D056D0022A54D0032A52D0042A50D0052AA9
S2140030E04ED0062A00F04981072A00F04881082AB7
S2140030F000F04781092A00F046810A2A00F045813F
S2140031000B2A00F050810C2A00F02F810D2A00F0C7
S2140031102E810E2A00F02D810F2A00F02C81102A15
S21400312000F02B81112A00F02481122A00F023815E
S214003130132A00F02281142A00F02181152A00F0BB
S2140031402081162A00F01F81172A00F01E81182AF7
S21400315000F01D81192A00F01C811A2A00F01B813C
S2140031601B2A00F01A811C2A00F019811D2A00F083
S21400317018811E2A00F017811F2A0CBF0722FF2283
S214003180E276002B00F0AA83012B00F0A983022B25
S21400319000F09283032B00F09183042B00F09083C1
S2140031A0052B00F08F83062B00F08E83072B00F094
S2140031B08D83082B00F08C83092B00F08B830A2B61
S2140031C000F070830B2B00F06F830C2B00F06E83E7
S2140031D00D2B00F06D830E2B00F06C830F2B00F090
S2140031E07183102B00F06483112B00F06383122B85
S2140031F000F06883132B00F06783142B00F06683BF
S214003200152B00F06583162B00F06483172B00F057
S2140032106383182B00F06283192B00F061831A2B4E
S21400322000F04A831B2B00F049831C2B00F04883D8
S2140032301D2B00F037831E2B00F036831F3B18BF74
S2140032404FF0FF33DBB223776B7C6376AB7C637720
S214003250EB7CA3762B7DA37701212046FFF74CFC61
S214003260064600287FF485AE01F055F92B7C032B2B
S214003270074640F03B832B682A8CDA675A6E42F08A
S21400328004025A665A6F42F030025A670AE000BFDC
S214003290000001400042040001000C00404105000F
S2140032A000350A0028684FF0FF3383642B7C032B1D
S2140032B00CBF0521042102F0CBF92B684FF44062C5
S2140032C0DA602046FFF7C2FA0646384601F029F9CA
S2140032D04FE6364A934206D1354B2362354BE360C0
S2140032E04FF450236DE6344A934206D1334B2362A3
S2140032F0334BE3604FF4602363E6324A93427FF435
S21400330037AE314B2362314BE3604FF4702358E6FF
S214003310DFF898C060455BD1052A14D9901F0428B1
S21400332013D9A2F10B00052811D9A2F11100062825
S2140033307FF6ADAEA2F1180106290AD91F2A14BFDE
S214003340FF210521A3E63146A1E601219FE60221E1
S2140033509DE639469BE60021B6E60121B4E6022149
S214003360B2E60321B0E60521AEE6072208E708220A
S21400337006E7092204E70A2202E70B2200E70C22EE
S214003380FEE60D22FCE60E22FAE60F22F8E6002202
S214003390F6E60122F4E60222F2E60322F0E6042232
S2140033A0EEE60522ECE60622EAE600BF000401404F
S2140033B00052040001000D000008014000620400F5
S2140033C001000E00000C01400072040001000F0016
S2140033D0DFF814C5604540F03181042A40F2FA80D7
S2140033E0511F032940F2F880A2F10901042940F296
S2140033F0F580A2F10E010E2940F2F280A2F11D0125
S214003400012940F2EF801F2A14BFFF210A21032B57
S214003410E17540F2E980191F032940F2E780A3F125
S2140034200801042940F2E480A3F10D010E2940F2C0
S214003430E180A3F11C01022940F2DE80B3F11F01F6
S21400344018BF4FF0FF31C9B22176002A00F0DC80A9
S214003450012A00F0DB80022A00F0DA80032A00F05E
S214003460D980042A00F0D880052A00F0E380062AD6
S21400347000F0E280072A00F0C180082A00F0C08031
S214003480092A00F0C3800A2A00F0C2800B2A00F046
S214003490C1800C2A00F0C0800D2A00F0BF800E2AE2
S2140034A000F0C8800F2A00F0C780102A00F0A8801D
S2140034B0112A00F0A780122A00F0A680132A00F036
S2140034C0A580142A00F0A480152A00F0A380162AEE
S2140034D000F0A280172A00F0A180182A00F0A08031
S2140034E0192A00F09F801A2A00F09E801B2A00F0FE
S2140034F09D801C2A00F09C801D2A00F09B801E2ABE
S21400350000F09A801F2A0CBF0222FF22E276002BD0
S21400351000F0C881012B00F0C781022B00F0C681A5
S214003520032B00F0C581042B00F0D681052B00F09C
S214003530D581062B00F0D481072B00F0BD81082B27
S21400354000F0B081092B00F0AF810A2B00F0AE81AD
S2140035500B2B00F0AD810C2B00F0AC810D2B00F096
S214003560BB810E2B00F0BA810F2B00F0A581102B2B
S21400357000F0A481112B00F0A381122B00F09281A1
S214003580132B00F09181142B00F09081152B00F086
S2140035908F81162B00F08E81172B00F09381182B4D
S2140035A000F09281192B00F091811A2B00F0908187
S2140035B01B2B00F08F811C2B00F08E811D2B00F042
S2140035C08D811E2B00F08C811F2B08BF052318BF92
S2140035D0FF2338E631461AE7082118E7012116E7E7
S2140035E0394614E70A2112E700212DE708212BE7C8
S2140035F0012129E7052127E70A2125E7022285E799
S214003600032283E7042281E705227FE706227DE77F
S21400361007227BE7082279E7092277E70A2275E77F
S2140036200B2273E70C2271E70D226FE70E226DE77F
S2140036300F226BE7002269E7012267E7A94EB04236
S2140036407FF496AC072A21D9A2F10801012940F29D
S214003650EF80A2F10A01052940F2EC80A2F11001E8
S214003660012940F2E980A2F11201052940F2E68024
S214003670A2F11801042940F2E380A2F11D010129FC
S21400368040F2E0801F2A14BFFF210A21062BE175B5
S21400369040F2DA80D91F012940F2D880A3F109014F
S2140036A0052940F2D580A3F10F01012940F2D2800E
S2140036B0A3F11101052940F2CF80A3F117010429D7
S2140036C040F2CC80A3F11C01022940F2C9801F2BD6
S2140036D014BFFF2103212176002A00F0C780012AAB
S2140036E000F0C680022A00F0C580032A00F0CC80D5
S2140036F0042A00F0CB80052A00F0CA80062A00F0D3
S214003700C980072A00F0C880082A00F0B580092A78
S21400371000F0B4800A2A00F0A5800B2A00F0A480EE
S2140037200C2A00F0A3800D2A00F0A2800E2A00F0DA
S214003730A1800F2A00F0A880102A00F0AB80112A82
S21400374000F0AA80122A00F0A980132A00F0A880B0
S214003750142A00F09180152A00F09080162A00F0B6
S2140037608F80172A00F08E80182A00F08D80192A84
S21400377000F08C801A2A00F08B801B2A00F08A80CA
S2140037801C2A00F089801D2A00F088801E2A00F07E
S21400379087801F2A0CBF0222FF22E276002B00F051
S2140037A08780012B00F08680022B00F08B80032B95
S2140037B000F08A80042B00F08980052B00F08880BA
S2140037C0062B00F08780072B00F08A80082B73D02A
S2140037D0092B67D00A2B67D00B2B67D00C2B67D032
S2140037E00D2B67D00E2B6DD00F2B71D0102B71D0F8
S2140037F0112B71D0122B71D0132B71D0142B5BD0E0
S214003800152B5BD0162B5BD0172B5BD0182B5BD001
S214003810192B5BD01A2B5BD01B2B5BD01C2B5BD0E1
S2140038201D2B5BD01E2B5BD01F2B08BF0823CEE6BC
S21400383008212BE7012129E7092127E7022125E7AF
S214003840052123E70A2121E7032144E7082142E76F
S214003850012140E709213EE702213CE705213AE73E
S2140038600A2138E7062298E7072296E7082294E717
S214003870092292E70A2290E702228EE703228CE7CB
S21400388004228AE7052288E70B2286E70C2284E7D3
S2140038900D2282E70E2280E70F227EE700227CE7D9
S2140038A001227AE70623CEE40723CCE40823CAE401
S2140038B00923C8E40A23C6E40323C4E40423C2E4B9
S2140038C00523C0E40B23BEE40C23BCE40D23BAE4BA
S2140038D00E23B8E40F23B6E40023B4E40123B2E4D5
S2140038E00223B0E4000C014000080140022B7FF4E4
S2140038F0D9AC607F0749FEF791FDFEF777FD4FF4E0
S2140039000073A382A6752046FFF7ECFACAE4024EBF
S214003910FFF72FBBD9260000027000F0F0B587B085
S21400392005461646FEF748FE0446F0B9CDE90116F0
S2140039300493686A0E4B03966A4601A90593FEF740
S21400394067FE044688B995F82C3073B92846FEF70A
S2140039501FFF00992846FEF7F3FF95F83130032B3A
S21400396003D02C752846FFF7BDFA204607B0F0BDF9
S214003970017000F073B5506A01A91446FEF72EFEDA
S214003980334B98422FD094F83200019B002836D152
S2140039902268116C11F4007128D02E4919619860C4
S2140039A04FF40073936400F0B6FD0199CD680646A7
S2140039B035B14A688B682046D31A0A680969A84751
S2140039C0606A01A9FFF728F8606A8588ADB2002D05
S2140039D02FD001A9FEF702FE01992046FEF7B0FFA0
S2140039E0304600F09EFD012002B070BD106CC5058B
S2140039F01BD51948186199604FF48073D2E70128E7
S214003A0013D12268D16A11F0800106D011491961DC
S214003A100021996080235363C5E7D06A400604D529
S214003A200D48186199604023F5E700221A619A60F4
S214003A30B9E7012323752046FFF754FA94F831308E
S214003A4084F82C50032BCBD02046FEF7BFFEC7E7EA
S214003A500B7000F00D7000F00C7000F0F0B587B041
S214003A6004461646FEF7A8FD054658BB0493194BB8
S214003A70059394F832300396CDE901162BBB2368E4
S214003A801B6903F0020313B92046FEF763FEA06A23
S214003A906A4601A9FEF7BCFD054698B994F82D3094
S214003AA083B900F038FDA36A9B889BB2064633B103
S214003AB000992046FEF766FF012384F83030304632
S214003AC000F02FFD284607B0F0BD012BDCD123689F
S214003AD09B68D6E7017000F00B4B1B7830B58BB1B6
S214003AE001200A490023054651F8042B32B192F80A
S214003AF03840022C04BF82F8385020460133042B8D
S214003B00F2D130BD0120FCE79CF002208CF00220B0
S214003B100C4B984210D90C4B984210D90222012324
S214003B200A490B640A49D1F8003123F0807343EA4E
S214003B300263C1F80031704700221346F0E7012205
S214003B40FBE700BF0048E8010090D0030000C84330
S214003B5000400E400F4B5B680F4B30B500221C46F2
S214003B60C9B21D798D4202D11D6885420DD201323F
S214003B70052A03F10803F4D1032206494B6823F013
S214003B80407343EA02634B6030BD04EBC2025279D5
S214003B90F3E700BF00000E400054040038B5074CA1
S214003BA041F67133256C2364FEF712F80021FFF707
S214003BB0D1FF0DB10023236438BD00BF00000E40C6
S214003BC0044BDB6B5B0604D4034AD2F8C830002BE8
S214003BD0FBD1704700300E400000C64308B5FFF723
S214003BE0EFFF024B5868C0F3014008BD00300E409E
S214003BF0044BD3F84421D20703D4D3F84021104213
S214003C00FBD1704700400E4038B5054C41F6713385
S214003C10256C2364FFF79EFF0DB10023236438BD97
S214003C2000000E4038B5C0F30323013B092B16D81D
S214003C30DFE803F02616151505191C151F23124C70
S214003C400023C0F3043513B11846FFF7D1FF04F183
S214003C50424404F5801405EBC404A400216038BD7A
S214003C600A4C0023EDE70A4C0123EAE7094C10232F
S214003C70E7E7094C4FF48033E3E7084C0023E0E71E
S214003C80074C0023DDE700BFB0400E40C0400E40AA
S214003C90E0400E40E8400E40F0400E4050410E40DE
S214003CA000400E40C0F30313013B092B2AD8DFE87F
S214003CB003F0050B0F1929291F23374B274BD3F881
S214003CC00001C0F304207047244BD3F81401F8E732
S214003CD0224BD3F80001C0F30060431C012098403B
S214003CE0013870471D4BD3F80C01C0F3082070470D
S214003CF01A4BD3F80801F8E7194B984204D0194B31
S214003D00984207D000207047144BD3F8203103F0B8
S214003D100F03E3E7114BD3F82031C3F30113DDE7BC
S214003D20114B98420CD003F5B01303F5805398421C
S214003D30E8D10A4BD3F82801C0F30120031DCDE7D4
S214003D40064BD3F82831E8E7084B9842DAD1034B04
S214003D50D3F8300100F00300704700BF00400E406B
S214003D608006160080162E0090171A00A009140070
S214003D7008B5FFF797FF013008BD000000F00F0000
S214003D800138072844D8DFE800F0040F1943232D34
S214003D904335244BD3F8943003F00703023B052B3E
S214003DA038D8214AD05C70471E4BD3F8803003F0D9
S214003DB00703013B032B2FD81C4AF3E7194BD3F814
S214003DC0843003F00703013B032B25D8184AE9E7A4
S214003DD0144BD3F8883003F00703013B032B1BD8A2
S214003DE0144ADFE70F4B1B6F13F0010F0CBF0720C1
S214003DF0092070470B4BD3F85C3103F03003202BBF
S214003E000CD0302B0CD0102B14BF0120072070478D
S214003E100020704705207047012070470420704737
S214003E200820704700400E40D4530400DA530400C4
S214003E30DE530400DA53040008B50146FFF79EFF80
S214003E401A4B994211D01A4B994212D0194B9942EB
S214003E5004D1194BD3F8800000F00700013803287E
S214003E6021D8DFE800F00A0E1612134BD3F88400B0
S214003E70F2E7114BD3F88800EEE7BDE80840FDF7FF
S214003E800BBFBDE80840FDF70DBFBDE80840FDF7D5
S214003E9006BFFDF7A1FE084BD3F80031C3F300635D
S214003EA00133D84008BD0020FCE700BF0300200017
S214003EB00500240002001E0000400E4000F47813A7
S214003EC0B3F5B01F10B5044674D025D8B3F5402F0F
S214003ED05ED010D8B3F5802F49D005D83BB1B3F5E6
S214003EE0003F4FD0002010BDB3F5202FFAD1BDE81B
S214003EF01040FDF771BEB3F5801F00F08480B3F567
S214003F00A01F4DD0B3F5602FECD14A48FFF736FF1F
S214003F10072878D00928E9E7B3F5381F53D013D817
S214003F20B3F5001F58D00AD8B3F5D01F56D0B3F556
S214003F30F01FD7D14048BDE81040FFF77DBFB3F56E
S214003F40101FCFD13D48F6E7B3F5481F4DD0B3F567
S214003F50781F65D0B3F5401FC4D13948FFF76CFF12
S214003F60384BD3F82831C3F30123043320E0FDF7A0
S214003F7033FE344BD3F80C31C3F308230133B0FBC4
S214003F80F3F0B0E7FDF728FE2E4BD3F80831F3E741
S214003F90FDF722FE2B4BD3F81431C3F30423EDE7D1
S214003FA02648FFF749FF274BD3F8303103F00303C9
S214003FB0D84098E72048FFF73FFF224BD3F8203140
S214003FC003F00F03F4E71C48FFF736FF1D4BD3F84A
S214003FD02031C3F30113EBE71948ACE71848FFF7A5
S214003FE02BFF184BD3F82831F3E71748FFF7C6FE28
S214003FF0072808D0082809D004287FF473AFBDE846
S2140040001040FDF725BE114B18686CE7FDF7E4FD80
S2140040100C4BD3F80031C3F3042303FB000062E724
S214004020FDF7DAFD01462046FFF7A2FEB1FBF0F0F1
S21400403059E700BF06000E0002001E00050024001F
S2140040400300200000400E40B8003200E02D0220A1
S214004050014B1880704700BFE42D0220013810B5D0
S214004060032812D8DFE800F0022E1220214AC1F3FE
S2140040700801D2F86838002BFBD11F4A136A23F4D4
S214004080FF7323F001031943116210BD194A01F0B2
S2140040907F01D2F86038002BFBD1174A136923F052
S2140040A07F0319431161F0E7124A01F07F01D2F84D
S2140040B06438002BFBD1104A936923F07F03194321
S2140040C09161E2E70C4AD2F89030536A23F030034D
S2140040D043F010035362146B084BC1F3C310033054
S2140040E00F2803EA040328BF0F20194341EA007192
S2140040F01163CAE70020C84300400E4000F8FF0FD7
S214004100104A536A13F0300F18D0202913D03029E4
S21400411014D000290C4B08BF4FF44003D2F890107F
S21400412033EA0101FAD15B0246BFD2F8A000C0F321
S2140041308020012070474FF40003EFE74FF4400360
S214004140ECE700BF00400E40FF33E10702280AD12B
S21400415029B1064B4FF48060C3F8A800596612B127
S2140041600220FFF7CDBF0120704700BF00400E4081
S2140041700428F8B545D8314B314F13F800C0314B01
S2140041801B5C002943D0304C022834F8106039D12B
S2140041907C6A14F0300F35D12C4CE46B7C6AE40753
S2140041A005D57D6A25F0300545F010057D62244C66
S2140041B02666274C23449B001D68002DFCD002B3C6
S2140041C06444A4002368002BFCD0022819D1C1B196
S2140041D01B4D696A11F0010116D001222021FFF75C
S2140041E0B5FFD5F89C70012200210220FFF7C0FF22
S2140041F0C7F30A010220FFF731FF2E662368002B63
S214004200FCD0F8BD0021D2E7FFF77AFFE9E71149B5
S21400421031F810103966012101FA03F3D7F890102F
S2140042201942FBD1002AECD00124054A04FA0CF40A
S214004230D2F890302342FBD1E3E700BFE2530400FC
S21400424000400E40E7530400EC53040000300E40DC
S2140042508004F210F6530400112838B50C4615D029
S21400426000F00F000138072869D8DFE800F02B04BB
S21400427064686283688E5E4D013C092C5FD8DFE877
S21400428004F0775F665E5E6D5E5E5E5C042912D14A
S214004290FDF7DEFC0546A8B10021284600F080FBAD
S2140042A0023C0A2C4BD8DFE804F03F3C30364A4A42
S2140042B04A4A4A0F4200052904D14E4B1D684E4B10
S2140042C09D42E9D80025EBE703200524012211468C
S2140042D0FFF74EFFFFF762FC0DB1FFF771FC474B8F
S2140042E05C67FDF7A3FC0446FDF776FCFFF710FCC1
S2140042F0FFF774FC01462046FFF786FCFDB928460A
S2140043000121BDE8384000F04BBB3D48FFF700FCFC
S21400431002200446DAE73A48FFF7FAFB01240320B6
S214004320D4E701200324D1E700200424CEE70724A5
S214004330D0E7344DA0E7344D9EE704232B6038BD0C
S214004340012211460020FFF713FF0223F6E70122A1
S21400435011461046FFF70CFF0123EFE7FDF73CFC84
S214004360FFF7D6FB294B0122C3F808260323E5E70F
S2140043700023E3E7072904D00929E0D11F4B0122D7
S21400438001E01E4B00221A67D9E74C1E072CD6D830
S21400439001A353F824F000BFEB4300003F430000A6
S2140043A03F430000DD4300003F4300003F43000062
S2140043B0CF430000B943000003221049D1F85C3116
S2140043C023F0300343EA0213C1F85C31B7E7012259
S2140043D011460420FFF7CCFE0122EEE7012211462B
S2140043E00220FFF7C5FE0222E7E70022E5E700BF4E
S2140043F080400E40B02D0220002D310100400E40BE
S2140044000148E80188400E4084400E400010C84332
S21400441010B504461120FFF7B1FC0021012202204E
S214004420FFF7A6FE184A217C536A23F001030229EF
S21400443008BF43F001035362144B2178C3F8A0145D
S214004440637AA18843EAC123D362136BA07A217AE8
S21400445003F07F630343E08843EAC02343EAC113C3
S21400446003310F2928BF0F2143EA01731363A37B8F
S214004470617B1B0143EA0133E17B0B43217B43EA6B
S2140044800143536310BD00BF00400E400000C84308
S21400449038B50E4D01461120FFF770FCAA6B0C4B89
S2140044A00C7813401C434B7844EAC3248B7844EAC8
S2140044B00364CB7844EA0324AB6BA34205D0002107
S2140044C001220846FFF754FEAC6338BD00400E409C
S2140044D080E4FFF80028A7BF00F1604000F56140C7
S2140044E000F00F00034BACBF90F80003185C4009C7
S2140044F0704700BF14ED00E0EFF3108072B670470F
S21400450000B962B67047602383F3118870470023B2
S21400451083F311887047EFF31180602383F31188CB
S214004520704780F3118870474209054B53F82230D4
S21400453000F01F0023FA00F0C04300F001007047AF
S21400454000E100E008B50146EFF31083DB0702D573
S2140045500122104608BDFFF7E7FF02460028F7D104
S2140045600846FFF7B7FF0146EFF3118313B1B0EB30
S214004570531FEDD2074B5B68C3F30803002BE8D04C
S214004580103B58B2FFF7A6FF88428CBF00220122DC
S214004590DFE700BF00ED00E0436823F01F030E29AD
S2140045A00BD8DFE801F008080808080B0B0B080812
S2140045B008080B0B0B00194341607047194341F084
S2140045C01001F9E770B5066A056A046A036A102ADC
S2140045D0C1E90065C1E9024307D1056A046A026AB7
S2140045E0036AC1E90454C1E9062370BD30B58B07E0
S2140045F089B00C4615460BD06946FFF7E3FF082D39
S2140046000CBF1022202220463DF0E8FA09B030BD4B
S2140046100091009909B0BDE83040FFF7D3BF000015
S214004620034BD86B80F04000C0F38010704700BF8B
S21400463000300E4042EA0323B3F5007F39D016D887
S214004640B3F5807F31D007D85BB3012B1ED0002294
S214004650134603600A60704740F201129342F6D197
S214004660184BD3F824321A0EC3F30743F1E7B3F519
S214004670407F22D040F2013293420ED040F2012217
S2140046809342E4D10F4BD3F8283202E00D4BD3F817
S2140046902432C3F30722DBB2DBE70A4BD3F8283217
S2140046A0E1E7084BD3F81C32F3E7064BD3F81C328D
S2140046B0D9E7044BD3F82032EBE7024BD3F820328D
S2140046C0D1E700BF0081E00F08B5FFF7A9FF20B1D2
S2140046D0024AD2F8C830002BFBD108BD0000C64302
S2140046E008B5FFF79DFF80B1FFF7EEFF074B19688F
S2140046F05A68C1F30121C2F3014291421A688CBF85
S21400470042F0100222F010021A6008BD00300E407F
S214004710064B1B68DB0608D5054B1B69C3F3044331
S214004720082B02BF034B044A1A60704700300E4045
S21400473000400E40B02D0220C0EA210137B5FFF739
S2140047406FFF38B1244B1B78C3F10202102393404D
S214004750224A13612249234DD1F8804145F60E03C3
S214004760C1F880312B6823F0AA03DB05DB0D0B664E
S214004770FFF7AAFF194B1B68D80604F0010416D5EC
S214004780D1F84031DA01FBD4174B1B680B61174B8D
S2140047901B78052B0BD1164B18680190FFF794FF7A
S2140047A00E4B01985968C1F30141FFF72DFA0F4BE4
S2140047B01978052902D01120FFF74EFD2B68DB077C
S2140047C05EBF074B02221A661CB1054B0022C3F8D7
S2140047D0802103B030BD00BFB1F0022000300E4093
S2140047E000400E40A0F00220ACF00220AAF002200A
S2140047F0B02D022010B50B4C0B4BD4F890201A604D
S2140048001120FFF7BBFA094B1870FFF75DFF084B46
S214004810084A5B68C3F301431370074B22691A60AA
S21400482010BD00BF00400E40A0F00220AAF00220FB
S21400483000300E40B1F00220ACF002207047704706
S2140048407047000010B5044608B1FFF7D3FFFFF726
S21400485047FF164A136943F004031361FFF7EEFFA0
S214004860FFF7EDFF124B1B68DB0618D5FFF744FE7B
S21400487040F01EFCFFF744FEFFF7E2FF01F09CFD50
S2140048807CB1FFF75BFF0A4AD2F84C3123F00043B5
S214004890C2F84C3144B9BDE81040FDF7C7B930BF87
S2140048A0EAE7FFF735FFEEE710BD00BF00ED00E0DA
S2140048B000300E4038B5044608B1FFF79BFFFFF7FF
S2140048C00FFF1B4B1B4DD3F8802145F60E01D20778
S2140048D0C3F8801148BF00224FF42071196648BF04
S2140048E0C3F88021144A136943F004031361FFF7E9
S2140048F0A5FF2B68DB0615D5FFF7FEFD40F0D8FBBD
S214004900FFF7FEFD01F058FD74B1FFF717FFD5F86D
S2140049104C3123F00043C5F84C3144B9BDE838406B
S214004920FDF784B930BFEDE7FFF7F2FEEFE738BDDD
S21400493000400E4000300E4000ED00E0FFF75ABF8A
S214004940FFF7FCBE70B504460E46FFF769FE10B3CF
S214004950FFF7BAFE104B5B68C3F301439C421AD0C4
S2140049600E4BD3F80031FDF737F9022C054602D17D
S2140049702146FFF749F9C4F1020210239340064A84
S21400498013610EB1FFF7A0FE2CB921462846BDE8FC
S2140049907040FFF739B970BD00300E4000400E4041
S2140049A013B50246FFF73CFEC8B152B90D4B019154
S2140049B0D3F80041FDF710F9C4F30422019902FB75
S2140049C00002094B1B7843B1084B9A4205D80220D7
S2140049D002B0BDE81040FFF7B5BF0020F8E702B010
S2140049E010BD00BF00400E40B0F00220002D310187
S2140049F0034B02781A7001210020FFF7D1BF00BFD9
S214004A00B0F00220064942780B6823F4407343EA6C
S214004A100223022A0B6004BF024B5B6A704700BF8A
S214004A2000300E4000400E400378134A002B4378B7
S214004A3070B514BF04260026002B8378946914BF33
S214004A4002250025002B037924F03F0443EA0403E3
S214004A50C47814BF08210021012C08BF43F00103CD
S214004A6033432B430B4393611368417923F440335C
S214004A7043EA0143136070BD00300E40224B4AF6F5
S214004A80E85210B5596B5A639A6FD207FCD41B6C68
S214004A9013F003031EBF1D4A0124C2F8B44A834222
S214004AA004D110B9194BC3F8B40A10BD032B00D0BB
S214004AB09BB9431E012B10D8134A4FF40023D36230
S214004AC0936FDB07FCD4136C23F0030343F001035E
S214004AD013640D4A536A1C03FCD50B4B9A6FD2071E
S214004AE0FCD41A6C22F0030202431A649A6F12F086
S214004AF00102FBD10038054C18BF01200129C4F87B
S214004B00B40A08BF5A63D0E700300E400000C64320
S214004B102DE9F04F002389B0CDE90233CDE9043307
S214004B20CDE90633A0F5E163B3F5966F04460D466E
S214004B30914604D90025284609B0BDE8F08FB0F5A7
S214004B40E16F674B8CBF0122002240F0BC80D3F897
S214004B501832C3F30721DBB2079104934FF4167A99
S214004B604FF4966BDFF87C81D8F84C700192C7F34F
S214004B7001773B4605A902A8FFF75CFDD8F8EC6074
S214004B80019AC6F30126334606A903A8FFF752FD8D
S214004B90049B0799A4EB0B0EA1EB030C0EFB0CFC7D
S214004BA0BCFBFAF213EB020C2CBF01230023614579
S214004BB0C0D3002BBED1069A0398131A0EFB03F33C
S214004BC0B3FBFAF3C0182CBF012300238242B1D3F3
S214004BD0002BAFD1059B02995A1A0EFB02FEBEFBB4
S214004BE0FAFA11EB0A012CBF4FF0010E4FF0000E3F
S214004BF08B429FD3BEF1000F9CD1B9F1000F10D0AD
S214004C00D8F85C2022F4FE4222F00202B4F5E16FEE
S214004C1042EA0C2218BF4FF0020E42EA0E02C8F813
S214004C205C20002D4DD02E4B022FD3F830223ED0E4
S214004C30032F3FD0012F14BFD2B2C2F307221203B4
S214004C4012F4702F7FF476AF264FFB6E23F470437A
S214004C501A43234BFA66022ED3F830222CD0032EAA
S214004C602DD0012E14BFD2B2C2F30722120312F4C3
S214004C70702F7FF45FAF1B4ED6F8EC3023F47043F2
S214004C801A43C6F8EC20736E814238BF014623F4FF
S214004C90FF73E72923F0010328BFE721B4F5E16F8E
S214004CA018BF43F0010343EA4103736643E7C2F3C8
S214004CB00742C4E7120EC2E7C2F30742D6E7120E57
S214004CC0D4E7012537E7D3F81832190EC3F30743A4
S214004CD0079104934FF4966A4FF4E16B42E700BFE6
S214004CE00081E00F00300E40304B1A6FD96C11F087
S214004CF0010F02F0060244D0002A42D0132851D9F0
S214004D00143813288CBF102308232849013BCA6C8B
S214004D10180322F47F4240EA03231343CB64244B58
S214004D20CA6C1B88C2F303222833013202EB8200CE
S214004D3003EB5303B3FBF0F3C86C013B072B28BF10
S214004D40072320F0EE6040EA036343F48013CB644D
S214004D50184BB3F90030002B12DB03F12800C0F328
S214004D604E030344500800EB4202B3FBF2F20B6D15
S214004D70072A28BF072223F0700343EA02120A65B7
S214004D807047D96C01F00101114304D1092809D9F3
S214004D900A380928B6E7DB6C13F00103B5D01AB958
S214004DA02728AFE70423B0E70023AEE700300E4025
S214004DB0A6F00220A8F00220064A074BD3F8803956
S214004DC0136F23F007031843044B10671888FFF788
S214004DD08BBF00BF00300E400000C643A4F0022088
S214004DE0374A38B502239363936B03F00F03022B05
S214004DF0044602D00025284638BDE3888088B4F9EA
S214004E000C504A2B4FD9B3F5FA7F4ED340F6C31158
S214004E108B4294BF4FF000514FF04051D36C23F0BB
S214004E20405323F00103002DA8BF43F001030B43BA
S214004E30D364D2F8EC3043F44073C2F8EC30214B24
S214004E401880D36E43F08073D3661F4BD3F8800967
S214004E5000B10420FFF7B0FF1C4B218919801C4BC2
S214004E60B4F90C20A0881A80FFF73EFFA37BFBB1A5
S214004E70012B21D0012260881146FFF749FE054626
S214004E800028B7D00E4AD36B43F48063D3636078B0
S214004E90FFF7F4FDA37AA3F12002534253410A4AD6
S214004EA0C2F89437A7E70021B8E74FF08051B5E77E
S214004EB0034B084A9A65DDE7014B074AFAE700BF4D
S214004EC000300E40A4F002200000C643A6F00220E8
S214004ED0A8F0022077402057372110B770B5054656
S214004EE00E461446FFF708FB296881EA040202EA28
S214004EF006044C402C60BDE87040FFF701BB000084
S214004F00072AF8B501F0030614461F464FF00F01B6
S214004F1020D8950000FA05F2A9401648FFF7DEFFF4
S214004F200321154806FA05F2A940FFF7D7FF1349F3
S214004F309DF818302144890001220F60C1F88030A6
S214004F400F4B02FA04F4C3F824449DF81C30C1F851
S214004F500033F8BDA2F10805AD0000FA05F2A9403D
S214004F600848FFF7BBFF0321074806FA05F2A940E9
S214004F70DBE700BF00A4004008A4004080208510A6
S214004F8000A0004004A400400CA40040F0B54AB1C4
S214004F901D4C3026012546438D4034440BB304F1A6
S214004FA0C06425603024444304F18044072904F596
S214004FB0204419D865688E000F27B74025EA0705F4
S214004FC002FA06F63543656052B9012202FA01F18B
S214004FD0302250430C4A02449BB102F1C062116079
S214004FE0F0BD04F18064DCE7A1F10805A668AD0019
S214004FF00F27AF4026EA070602FA05F53543A560F7
S214005000E2E702F18062EAE70CA00040034B0344AB
S2140050109B0081F001011960704700BFA001F110EC
S21400502010B5044601214FF4AA40FEF7FBFDB4F884
S214005030013022785BBA9BB243EA02630B4A1360E4
S21400504000231362D36253634FF00043D3664FF0DE
S214005050FF339366064A4FF40071C2F88011E37876
S2140050605B01DBB282F80933116010BD00200E40F0
S21400507000E100E02DE9F041C3B2254E91F80AC0E8
S2140050800F7B01250C469D404FF03008CB7A497BBC
S21400509008FB00604FEA035E2368C0F880304EEAE3
S2140050A00C4343EA475322F00302C0F88810C0F8C6
S2140050B08430C0F89820B566FFF72DFAF36E2B43C0
S2140050C0F366237A13B1736B2B437363637A13B15E
S2140050D0F36A2B43F3620E4B1A68237923B1DB4342
S2140050E01B0263F47F431A4063790BB142EA032242
S2140050F0A3790BB122EA0302E3791A43044B1A6040
S214005100044A9562DD63BDE8F041FFF70ABA00BFC6
S21400511000200E4000200E4410B5C0B2012484408A
S214005120FFF7F9F9054AD36E23EA0403D366044B66
S2140051301C62BDE81040FFF7F4B900BF00200E4027
S21400514000200E44F8B5C3B2012504469D40FFF783
S214005150E2F90A4B30221E6E9F6A02FB0433D3F834
S2140051608C40FFF7DEF93D4206D1C4F30A1008B9B9
S214005170354200D10130F8BD0020FCE700200E408B
S214005180036CDB0702D4436C0B42FCD17047000073
S214005190064B0B4003F58073B0FBF3F203FB1200E3
S2140051A00002B0FBF3F000EB02207047F8FF0100AE
S2140051B0074B984210B5044607D10648FEF77EFE18
S2140051C0E168BDE81040FFF7E3BF002010BD00BF58
S2140051D000A0044090171A0008B50A468368DB064C
S2140051E0FCD54021FFF7CCFF826208BD054B5A680C
S2140051F05B68054B41F671321A649A6822F0010228
S2140052009A60704700300E4000000E40034B9A68CC
S21400521022F001029A6000221A64704700000E40D5
S214005220094A0A4BD969C90705D512B96FF00200B9
S2140052307047013AF6E7002AF8D001221861DA60D2
S214005240D86940F3800070478096980000000E40B2
S21400525070B5C1B10E4A0023082550F8234094616A
S2140052600C4CD5600133D669F60705D514B96FF036
S214005270020009E0013CF6E7002CF8D0D469A40748
S21400528003D49942E9D1002070BD6FF00100FBE71E
S21400529000000E40809698002DE9F8431C4B884687
S2140052A041F671311D6C19641A4907464868496809
S2140052B0996841F00101ADB2996096084FF0000977
S2140052C0B14501D3002005E007EB89042046FFF72F
S2140052D0A7FF48B10E4B9A6822F001029A600DB102
S2140052E000221A64BDE8F883C4F30A04C4F5006417
S2140052F0A408A6EB0901A14228BF21464046FFF7B5
S214005300A7FF0028E6D1894408EB8108D8E700BF4C
S21400531000000E4000300E40234B41F671311A6CEF
S21400532010B5196421494C684968996841F0010133
S214005330996001211861D960D9694C0792B209D5E4
S214005340996821F0010199600AB100221A644FF0B1
S214005350FF3026E00221D9601549D869C00700D57C
S21400536069B9D86910F002000BD0996821F00101E4
S21400537099600AB100221A646FF0010011E0013949
S214005380EBE741B9986820F00100986002B1196413
S2140053906FF0020005E0996821F0010199600AB1FA
S2140053A0186410BD1046FCE700000E4000300E40AA
S2140053B080969800FFF770BF02F0070242EA035299
S2140053C001F4FE41024B14300A4343F82020704794
S2140053D000600E40074B002047F6077200F11401EC
S2140053E053F821100A4204D001300C28F6D14FF0B1
S2140053F0FF30704700600E40014B01229A607047F4
S21400540000500E40134B1449F0B500225D68134E51
S2140054101046D6F8E8714C680B687F070BD4B3F5D6
S214005420006F06D012D8B3F5007F02D0B3F5806FB8
S21400543001D144F480742B4202D02C4208BF18439A
S2140054400132092A01F10801E3D1F0BDB3F5803F2E
S214005450EEE700BF00500E40285404000040E00F66
S2140054608B784A789B0143EA82030A781343CA780A
S21400547043EA02130A7943EAC2234A7943EA02332B
S2140054808A79043043EA42430001014A13507047C8
S21400549000200440014B1860704700BF00008442A3
S2140054A0427801790378002A827870B514BF042602
S2140054B00026002AC27814BF10250025002A42794B
S2140054C04FEA023242EA012242EA0302837914BF1B
S2140054D020240024002BC37942EA034343EA060350
S2140054E0027A43EA050314BF4FF400410021234328
S2140054F0002A14BF4FF4003200220B431343014A24
S214005500136070BD002004400D4AD2F8E430D2F893
S214005510E0109B0003F03C03C1F381110B43837042
S214005520D2F8E03003F03F034370D2F8E830D2F808
S214005530EC2003F0F003C2F303121343037070472A
S21400554000FF0FE070B5054616461C4619B914480C
S214005550FEF7B4FC0146402C1BD003D8DCB1202C4F
S2140055601BD070BD602CFCD1042303FB06F256084A
S21400557006EB4113B3FBF2F30A4A203B02EAC303ED
S2140055802A6822F060022A602A6814432C606B6145
S214005590E7E70623E9E71023E7E70823E5E700BF88
S2140055A040410500F8FF7F002DE9B841154F15462C
S2140055B00F40FAB9202B20D0402B20D0002B14BF50
S2140055C040241024012307F580775F4300233A46E2
S2140055D019463CF0D5F8554304FB035100FB04F88C
S2140055E0A2FB040400233A4621443CF0C9F8404498
S2140055F0BDE8B88180240025E4E71C46E2E7802465
S2140056000323E0E7F8FF7F0070B504460568064808
S214005610FEF754FC2368616905F0010203F060039D
S214005620BDE87040FFF7C0BF4041050038B50546ED
S214005630144619B90548FEF741FC014601396400D5
S214005640B1FBF4F10902696138BD00BF40410500B5
S214005650CB435B0003F00A03C360C16070470000E1
S21400566040F6AA63C36041F205020023036042606D
S214005670104A83604361C36482640366436783673A
S214005680C3670D4B0D4A984209D0904207D003F5E8
S2140056900063984203D003F58063984201D100234B
S2140056A0036500239042836502D0054A904200D1EC
S2140056B0C3657047F9FF0100000001400004014087
S2140056C0000C014038B5FFF7CBFF8B7C05460C4637
S2140056D01BB1036843F080430360E37C1BB1237D6A
S2140056E043F08003AB65228A637B1343E28913434E
S2140056F06B60237BD4E901122846FFF723FF637D06
S2140057001BB12B6843F480332B60A37DE27D1B071F
S214005710120502F4E00203F0E04313432B666B6FBE
S21400572023F030036B676A6F237E13436B6723781F
S214005730EB6038BD38B5FFF793FF0C460A8A897BC5
S2140057400368002942F0010214BF4FF48061002173
S21400575013430B43227D03600368002A14BF4FF0F7
S2140057600052002213430360A37C05461BB1E37C72
S21400577043F080038365237B43F480536B60D4E956
S21400578001122846FFF752FF637B0BB11023EB6034
S214005790637D1BB12B6843F480332B60A37DE27DD1
S2140057A01B07120503F0E04302F4E00213432B66E6
S2140057B02378EB6038BD03695A06FCD5416303695C
S2140057C09B06FCD5C069C0B2704703695B06FCD572
S2140057D04163704738B5044634F099F90FCC044D50
S2140057E00FC594E80F0085E80F00002038BD00BF05
S2140057F0B4F0022047F6FF739A42F0B562D0022951
S21400580062D8324E06EBC10016F831308578012D8D
S214005810B8BF0125012B4FEAC1070DD1C3785B1B2A
S21400582023B1416831F91310914202DC5819C0B215
S214005830F0BD013B1BB2F3E740680028F8D0B0F992
S2140058400030934204DBB0F902309342B8BF1346EF
S21400585082883E44FF2A08BFB0F90640767807BF24
S214005860B0F908100122C824002218BF2821E41A23
S21400587094FBF1F4224414B2721EA242A8BF224640
S2140058804FF47A7700EBC2040132E188A46812B2C2
S21400589013FB014121EAE171B24201F5FA71B1FB55
S2140058A0F7F104DA00EBC204A4888C42EAD200EBDB
S2140058B0C20232F8040C884228BF0846A84238BF05
S2140058C02846B4E7FF20B3E70020B1E7B4F0022093
